before  0x


f8
53
82
nonce: 0147
86
gasPrice: 09184e72a000
82
gasLimit: 7530
94
to: 70997970c51812dc3a010c7d01b50e0d17dc79c8
88
vaeul: 8ac7230489e80000
a4
data: 7f7465737432000000000000000000000000000000000000000000000000000000600057
80
80
80
{
  "nonce": 327,
  "gasPrice": 10000000000000,
  "gasLimit": 30000,
  "to": "0x70997970c51812dc3a010c7d01b50e0d17dc79c8",
  "value": 10000000000000000000,
  "data": "7f7465737432000000000000000000000000000000000000000000000000000000600057"
}
after
0xf8938201478609184e72a0008275309470997970c51812dc3a010c7d01b50e0d17dc79c8888ac7230489e80000a47f746573743200000000000000000000000000000000000000000000000000000060005725a03eb5dc8a86c2b0cb79e948b26904f72a1648f54b065a67c209768347ca03a151a034d45214ab378f45a40a14b4c26342bf94266035a15559170323e793a4a92f5b

{
  "nonce": 327,
  "gasPrice": 10000000000000,
  "gasLimit": 30000,
  "to": "0x70997970c51812dc3a010c7d01b50e0d17dc79c8",
  "value": 10000000000000000000,
  "data": "7f7465737432000000000000000000000000000000000000000000000000000000600057",
  "from": "0xf39fd6e51aad88f6f4ce6ab8827279cfffb92266",
  "r": "3eb5dc8a86c2b0cb79e948b26904f72a1648f54b065a67c209768347ca03a151",
  "v": "25",
  "s": "34d45214ab378f45a40a14b4c26342bf94266035a15559170323e793a4a92f5b"
}

``js
 function ecsign(msgHash, privateKey, chainId) {
  const [signature, recovery] = signSync(msgHash, privateKey, {
    recovered: true,     der: false,
   });

   const r = Buffer.from(signature.slice(0, 32));
   const s = Buffer.from(signature.slice(32, 64));

   // alagi
   const v = Buffer.from("25", "hex");

   return { r, s, v };
}
``